{
  "contractName": "AssetManagement",
  "abi": [
    {
      "anonymous": false,
      "inputs": [
        {
          "indexed": false,
          "internalType": "string",
          "name": "serialNumber",
          "type": "string"
        },
        {
          "indexed": false,
          "internalType": "string",
          "name": "name",
          "type": "string"
        }
      ],
      "name": "NewOwnership",
      "type": "event"
    },
    {
      "constant": true,
      "inputs": [
        {
          "internalType": "string",
          "name": "",
          "type": "string"
        }
      ],
      "name": "deviceToOwner",
      "outputs": [
        {
          "internalType": "address",
          "name": "",
          "type": "address"
        }
      ],
      "payable": false,
      "stateMutability": "view",
      "type": "function"
    },
    {
      "constant": true,
      "inputs": [
        {
          "internalType": "uint256",
          "name": "",
          "type": "uint256"
        }
      ],
      "name": "devices",
      "outputs": [
        {
          "internalType": "string",
          "name": "name",
          "type": "string"
        },
        {
          "internalType": "string",
          "name": "serialNumber",
          "type": "string"
        }
      ],
      "payable": false,
      "stateMutability": "view",
      "type": "function"
    },
    {
      "constant": false,
      "inputs": [
        {
          "internalType": "string",
          "name": "_serialNumber",
          "type": "string"
        },
        {
          "internalType": "string",
          "name": "_name",
          "type": "string"
        }
      ],
      "name": "associateDeviceToOwner",
      "outputs": [],
      "payable": false,
      "stateMutability": "nonpayable",
      "type": "function"
    }
  ],
  "bytecode": "0x608060405234801561001057600080fd5b50610851806100206000396000f3fe608060405234801561001057600080fd5b50600436106100415760003560e01c806310ff8e3114610046578063e1c4aeea14610159578063f2a76c3f146102ab575b600080fd5b6100726004803603602081101561005c57600080fd5b81019080803590602001909291905050506103a6565b604051808060200180602001838103835285818151815260200191508051906020019080838360005b838110156100b657808201518184015260208101905061009b565b50505050905090810190601f1680156100e35780820380516001836020036101000a031916815260200191505b50838103825284818151815260200191508051906020019080838360005b8381101561011c578082015181840152602081019050610101565b50505050905090810190601f1680156101495780820380516001836020036101000a031916815260200191505b5094505050505060405180910390f35b6102a96004803603604081101561016f57600080fd5b810190808035906020019064010000000081111561018c57600080fd5b82018360208201111561019e57600080fd5b803590602001918460018302840111640100000000831117156101c057600080fd5b91908080601f016020809104026020016040519081016040528093929190818152602001838380828437600081840152601f19601f8201169050808301925050505050505091929192908035906020019064010000000081111561022357600080fd5b82018360208201111561023557600080fd5b8035906020019184600183028401116401000000008311171561025757600080fd5b91908080601f016020809104026020016040519081016040528093929190818152602001838380828437600081840152601f19601f820116905080830192505050505050509192919290505050610507565b005b610364600480360360208110156102c157600080fd5b81019080803590602001906401000000008111156102de57600080fd5b8201836020820111156102f057600080fd5b8035906020019184600183028401116401000000008311171561031257600080fd5b91908080601f016020809104026020016040519081016040528093929190818152602001838380828437600081840152601f19601f82011690508083019250505050505050919291929050505061072e565b604051808273ffffffffffffffffffffffffffffffffffffffff1673ffffffffffffffffffffffffffffffffffffffff16815260200191505060405180910390f35b600281815481106103b357fe5b9060005260206000209060020201600091509050806000018054600181600116156101000203166002900480601f01602080910402602001604051908101604052809291908181526020018280546001816001161561010002031660029004801561045f5780601f106104345761010080835404028352916020019161045f565b820191906000526020600020905b81548152906001019060200180831161044257829003601f168201915b505050505090806001018054600181600116156101000203166002900480601f0160208091040260200160405190810160405280929190818152602001828054600181600116156101000203166002900480156104fd5780601f106104d2576101008083540402835291602001916104fd565b820191906000526020600020905b8154815290600101906020018083116104e057829003601f168201915b5050505050905082565b6002600460003373ffffffffffffffffffffffffffffffffffffffff1673ffffffffffffffffffffffffffffffffffffffff168152602001908152602001600020541061055357600080fd5b60026040518060400160405280848152602001838152509080600181540180825580915050906001820390600052602060002090600202016000909192909190915060008201518160000190805190602001906105b1929190610777565b5060208201518160010190805190602001906105ce929190610777565b50505050600460003373ffffffffffffffffffffffffffffffffffffffff1673ffffffffffffffffffffffffffffffffffffffff168152602001908152602001600020600081548092919060010191905055507f6129d55a79a134eb08b190d1d2ca17eca5516c57382bea118a682acf8314e4df8282604051808060200180602001838103835285818151815260200191508051906020019080838360005b8381101561068857808201518184015260208101905061066d565b50505050905090810190601f1680156106b55780820380516001836020036101000a031916815260200191505b50838103825284818151815260200191508051906020019080838360005b838110156106ee5780820151818401526020810190506106d3565b50505050905090810190601f16801561071b5780820380516001836020036101000a031916815260200191505b5094505050505060405180910390a15050565b6003818051602081018201805184825260208301602085012081835280955050505050506000915054906101000a900473ffffffffffffffffffffffffffffffffffffffff1681565b828054600181600116156101000203166002900490600052602060002090601f016020900481019282601f106107b857805160ff19168380011785556107e6565b828001600101855582156107e6579182015b828111156107e55782518255916020019190600101906107ca565b5b5090506107f391906107f7565b5090565b61081991905b808211156108155760008160009055506001016107fd565b5090565b9056fea265627a7a72315820d7df9fa5f2660d485c223f75832c00df86925e3009cf474ac2d505b6735031fd64736f6c63430005100032",
  "source": "pragma solidity ^0.5.16;\n\ncontract AssetManagement {\n\n    event NewOwnership(string serialNumber, string name);\n\n    address owner;\n    string ownerName;\n\n    struct Device {\n        string name;\n        string serialNumber;\n    }\n\n    Device[] public devices;\n    mapping(string => address) public deviceToOwner;\n    mapping(address => uint) ownerDevicesCount;\n\n    function associateDeviceToOwner(string memory _serialNumber, string memory _name) public {\n        require(ownerDevicesCount[msg.sender] < 2);\n        devices.push(Device(_serialNumber, _name));\n        ownerDevicesCount[msg.sender]++;\n        emit NewOwnership(_serialNumber, _name);\n    }\n\n\n\n}\n",
  "sourcePath": "/Users/sam.ndagano/Documents/training/growth/smart_contracts/growth_session_2_blockchain_poc/solidity/contracts/AssetManagement.sol",
  "compiler": {
    "name": "solc",
    "version": "0.5.16+commit.9c3226ce.Emscripten.clang"
  },
  "schemaVersion": "3.4.1",
  "updatedAt": "2021-06-18T13:30:19.321Z",
  "networkType": "ethereum",
  "devdoc": {
    "methods": {}
  },
  "userdoc": {
    "methods": {}
  }
}